{
  "_format": "hh3-artifact-1",
  "contractName": "Vengence",
  "sourceName": "contracts/vengence.sol",
  "abi": [
    {
      "inputs": [],
      "stateMutability": "nonpayable",
      "type": "constructor"
    },
    {
      "anonymous": false,
      "inputs": [
        {
          "indexed": true,
          "internalType": "address",
          "name": "account",
          "type": "address"
        },
        {
          "indexed": true,
          "internalType": "address",
          "name": "operator",
          "type": "address"
        },
        {
          "indexed": false,
          "internalType": "bool",
          "name": "approved",
          "type": "bool"
        }
      ],
      "name": "ApprovalForAll",
      "type": "event"
    },
    {
      "anonymous": false,
      "inputs": [
        {
          "indexed": true,
          "internalType": "address",
          "name": "operator",
          "type": "address"
        },
        {
          "indexed": true,
          "internalType": "address",
          "name": "from",
          "type": "address"
        },
        {
          "indexed": true,
          "internalType": "address",
          "name": "to",
          "type": "address"
        },
        {
          "indexed": false,
          "internalType": "uint256[]",
          "name": "ids",
          "type": "uint256[]"
        },
        {
          "indexed": false,
          "internalType": "uint256[]",
          "name": "values",
          "type": "uint256[]"
        }
      ],
      "name": "TransferBatch",
      "type": "event"
    },
    {
      "anonymous": false,
      "inputs": [
        {
          "indexed": true,
          "internalType": "address",
          "name": "operator",
          "type": "address"
        },
        {
          "indexed": true,
          "internalType": "address",
          "name": "from",
          "type": "address"
        },
        {
          "indexed": true,
          "internalType": "address",
          "name": "to",
          "type": "address"
        },
        {
          "indexed": false,
          "internalType": "uint256",
          "name": "id",
          "type": "uint256"
        },
        {
          "indexed": false,
          "internalType": "uint256",
          "name": "value",
          "type": "uint256"
        }
      ],
      "name": "TransferSingle",
      "type": "event"
    },
    {
      "anonymous": false,
      "inputs": [
        {
          "indexed": false,
          "internalType": "string",
          "name": "value",
          "type": "string"
        },
        {
          "indexed": true,
          "internalType": "uint256",
          "name": "id",
          "type": "uint256"
        }
      ],
      "name": "URI",
      "type": "event"
    },
    {
      "inputs": [],
      "name": "INDEXOF_BATMAN",
      "outputs": [
        {
          "internalType": "uint256",
          "name": "",
          "type": "uint256"
        }
      ],
      "stateMutability": "view",
      "type": "function"
    },
    {
      "inputs": [],
      "name": "INDEXOF_GOLD",
      "outputs": [
        {
          "internalType": "uint256",
          "name": "",
          "type": "uint256"
        }
      ],
      "stateMutability": "view",
      "type": "function"
    },
    {
      "inputs": [],
      "name": "INDEXOF_SILVER",
      "outputs": [
        {
          "internalType": "uint256",
          "name": "",
          "type": "uint256"
        }
      ],
      "stateMutability": "view",
      "type": "function"
    },
    {
      "inputs": [],
      "name": "admin",
      "outputs": [
        {
          "internalType": "address",
          "name": "",
          "type": "address"
        }
      ],
      "stateMutability": "view",
      "type": "function"
    },
    {
      "inputs": [
        {
          "internalType": "address",
          "name": "_owner",
          "type": "address"
        },
        {
          "internalType": "uint256",
          "name": "_id",
          "type": "uint256"
        }
      ],
      "name": "balanceOf",
      "outputs": [
        {
          "internalType": "uint256",
          "name": "myBalance_",
          "type": "uint256"
        }
      ],
      "stateMutability": "view",
      "type": "function"
    },
    {
      "inputs": [
        {
          "internalType": "address[]",
          "name": "_owners",
          "type": "address[]"
        },
        {
          "internalType": "uint256[]",
          "name": "_ids",
          "type": "uint256[]"
        }
      ],
      "name": "balanceOfBatch",
      "outputs": [
        {
          "internalType": "uint256[]",
          "name": "balanceOfOwners_",
          "type": "uint256[]"
        }
      ],
      "stateMutability": "view",
      "type": "function"
    },
    {
      "inputs": [
        {
          "internalType": "address",
          "name": "_owner",
          "type": "address"
        },
        {
          "internalType": "address",
          "name": "_operator",
          "type": "address"
        }
      ],
      "name": "isApprovedForAll",
      "outputs": [
        {
          "internalType": "bool",
          "name": "",
          "type": "bool"
        }
      ],
      "stateMutability": "view",
      "type": "function"
    },
    {
      "inputs": [
        {
          "internalType": "uint256",
          "name": "_id",
          "type": "uint256"
        },
        {
          "internalType": "uint256",
          "name": "_amount",
          "type": "uint256"
        },
        {
          "internalType": "string",
          "name": "_uri",
          "type": "string"
        }
      ],
      "name": "mint",
      "outputs": [],
      "stateMutability": "nonpayable",
      "type": "function"
    },
    {
      "inputs": [
        {
          "internalType": "address",
          "name": "_from",
          "type": "address"
        },
        {
          "internalType": "address",
          "name": "_to",
          "type": "address"
        },
        {
          "internalType": "uint256[]",
          "name": "_ids",
          "type": "uint256[]"
        },
        {
          "internalType": "uint256[]",
          "name": "_amounts",
          "type": "uint256[]"
        },
        {
          "internalType": "bytes",
          "name": "_data",
          "type": "bytes"
        }
      ],
      "name": "safeBatchTransferFrom",
      "outputs": [],
      "stateMutability": "nonpayable",
      "type": "function"
    },
    {
      "inputs": [
        {
          "internalType": "address",
          "name": "_from",
          "type": "address"
        },
        {
          "internalType": "address",
          "name": "_to",
          "type": "address"
        },
        {
          "internalType": "uint256",
          "name": "_id",
          "type": "uint256"
        },
        {
          "internalType": "uint256",
          "name": "_amount",
          "type": "uint256"
        },
        {
          "internalType": "bytes",
          "name": "_data",
          "type": "bytes"
        }
      ],
      "name": "safeTransferFrom",
      "outputs": [],
      "stateMutability": "nonpayable",
      "type": "function"
    },
    {
      "inputs": [
        {
          "internalType": "address",
          "name": "_operator",
          "type": "address"
        },
        {
          "internalType": "bool",
          "name": "_approved",
          "type": "bool"
        }
      ],
      "name": "setApprovalForAll",
      "outputs": [],
      "stateMutability": "nonpayable",
      "type": "function"
    },
    {
      "inputs": [
        {
          "internalType": "uint256",
          "name": "",
          "type": "uint256"
        }
      ],
      "name": "totalSupplyOfTokens",
      "outputs": [
        {
          "internalType": "uint256",
          "name": "",
          "type": "uint256"
        }
      ],
      "stateMutability": "view",
      "type": "function"
    },
    {
      "inputs": [
        {
          "internalType": "uint256",
          "name": "id",
          "type": "uint256"
        }
      ],
      "name": "uri",
      "outputs": [
        {
          "internalType": "string",
          "name": "",
          "type": "string"
        }
      ],
      "stateMutability": "view",
      "type": "function"
    }
  ],
  "bytecode": "0x6080604052348015600e575f5ffd5b50600480546001600160a01b0319163317905561156d8061002e5f395ff3fe608060405234801561000f575f5ffd5b50600436106100ca575f3560e01c8063a22cb46511610088578063cb04c4ea11610063578063cb04c4ea146101bc578063e985e9c5146101c3578063f242432a146101e6578063f851a440146101f9575f5ffd5b8063a22cb46514610177578063abb0f6d31461018a578063c6e64e53146101a9575f5ffd5b8062fdd58e146100ce5780630e89341c146101125780631055df4e146101325780632eb2c2d61461013a5780634e1273f41461014f5780638573daf41461016f575b5f5ffd5b6100ff6100dc366004610d65565b5f908152602081815260408083206001600160a01b039094168352929052205490565b6040519081526020015b60405180910390f35b610125610120366004610d8d565b610224565b6040516101099190610da4565b6100ff600181565b61014d610148366004610e5d565b6102c3565b005b61016261015d366004610f19565b6105dc565b6040516101099190610f83565b6100ff600281565b61014d610185366004610fc5565b6107b7565b6100ff610198366004610d8d565b60026020525f908152604090205481565b61014d6101b7366004611012565b610822565b6100ff5f81565b6101d66101d13660046110d4565b610a87565b6040519015158152602001610109565b61014d6101f4366004611105565b610ab6565b60045461020c906001600160a01b031681565b6040516001600160a01b039091168152602001610109565b5f81815260036020526040902080546060919061024090611177565b80601f016020809104026020016040519081016040528092919081815260200182805461026c90611177565b80156102b75780601f1061028e576101008083540402835291602001916102b7565b820191905f5260205f20905b81548152906001019060200180831161029a57829003601f168201915b50505050509050919050565b6001600160a01b0387166102f25760405162461bcd60e51b81526004016102e9906111af565b60405180910390fd5b8483146103415760405162461bcd60e51b815260206004820152601f60248201527f69647320616e6420616d6f756e7473206c656e677468206d69736d617463680060448201526064016102e9565b6001600160a01b03881633148061037a57506001600160a01b0388165f90815260016020908152604080832033845290915290205460ff165b6103965760405162461bcd60e51b81526004016102e99061121f565b5f5b85811015610493578484828181106103b2576103b261126b565b905060200201355f5f8989858181106103cd576103cd61126b565b9050602002013581526020019081526020015f205f8b6001600160a01b03166001600160a01b031681526020019081526020015f205f8282546104109190611293565b9091555085905084828181106104285761042861126b565b905060200201355f5f8989858181106104435761044361126b565b9050602002013581526020019081526020015f205f8a6001600160a01b03166001600160a01b031681526020019081526020015f205f82825461048691906112a6565b9091555050600101610398565b50866001600160a01b0316886001600160a01b0316336001600160a01b03167f4a39dc06d4c0dbc64b70af90fd698a233a518aa5d07e595d983b8c0526c8f7fb898989896040516104e794939291906112e9565b60405180910390a46001600160a01b0387163b156105d25760405163bc197c8160e01b808252906001600160a01b0389169063bc197c819061053b9033908d908c908c908c908c908c908c90600401611342565b6020604051808303815f875af1158015610557573d5f5f3e3d5ffd5b505050506040513d601f19601f8201168201806040525081019061057b91906113a5565b6001600160e01b031916146105d25760405162461bcd60e51b815260206004820181905260248201527f52656365697665722072656a656374656420746f6b656e207472616e7366657260448201526064016102e9565b5050505050505050565b60608382146106535760405162461bcd60e51b815260206004820152603c60248201527f4163636f756e7420746f20696473206d69736d617463682c20506c656173652060448201527f6861766520616e20657175616c206e756d626572206f6620626f74680000000060648201526084016102e9565b5f846001600160401b0381111561066c5761066c610ffe565b604051908082528060200260200182016040528015610695578160200160208202803683370190505b5090505f5b858110156107ad575f8787838181106106b5576106b561126b565b90506020020160208101906106ca91906113d3565b6001600160a01b0316036107185760405162461bcd60e51b8152602060048201526015602482015274496e76616c6964206f776e6572206164647265737360581b60448201526064016102e9565b5f5f86868481811061072c5761072c61126b565b9050602002013581526020019081526020015f205f8888848181106107535761075361126b565b905060200201602081019061076891906113d3565b6001600160a01b03166001600160a01b031681526020019081526020015f205482828151811061079a5761079a61126b565b602090810291909101015260010161069a565b5095945050505050565b335f8181526001602090815260408083206001600160a01b03871680855290835292819020805460ff191686151590811790915590519081529192917f17307eab39ab6107e8899845ad3d59bd9653f200f220920489ca2b5937696c31910160405180910390a35050565b6004546001600160a01b031633146108715760405162461bcd60e51b81526020600482015260126024820152713cb7bab932903737ba1030b71030b236b4b760711b60448201526064016102e9565b82158061087e5750826001145b1561090e578051156108d25760405162461bcd60e51b815260206004820152601f60248201527f796f752063616e74207365742055524920666f72207468697320746f6b656e0060448201526064016102e9565b5f83815260208181526040808320338452909152812080548492906108f89084906112a6565b90915550505f8381526002602052604090208290555b82600203610a82575f8151116109725760405162461bcd60e51b8152602060048201526024808201527f796f75206e65656420746f20706173732074686520555249206f6620746869736044820152630813919560e21b60648201526084016102e9565b600282106109c25760405162461bcd60e51b815260206004820152601a60248201527f4261746d616e204e66742063616e206f6e6c792068617665203100000000000060448201526064016102e9565b5f83815260026020526040902054600111610a1f5760405162461bcd60e51b815260206004820152601860248201527f4261746d616e204e667420616c7265616479204578697374000000000000000060448201526064016102e9565b5f838152600360205260409020610a368282611437565b505f83815260026020526040908190208390555183907f6bb7ff708619ba0610cba295a58592e0451dee2622938c8755667688daf3529b90610a79908490610da4565b60405180910390a25b505050565b6001600160a01b038083165f9081526001602090815260408083209385168352929052205460ff165b92915050565b6001600160a01b038516610adc5760405162461bcd60e51b81526004016102e9906111af565b6001600160a01b038616331480610b1557506001600160a01b0386165f90815260016020908152604080832033845290915290205460ff165b610b315760405162461bcd60e51b81526004016102e99061121f565b5f848152602081815260408083206001600160a01b038a168452909152902054610ba95760405162461bcd60e51b8152602060048201526024808201527f696e737566666369656e742062616c616e636520746f207472616e736665722060448201526366726f6d60e01b60648201526084016102e9565b5f848152602081815260408083206001600160a01b038a16845290915281208054859290610bd8908490611293565b90915550505f848152602081815260408083206001600160a01b038916845290915281208054859290610c0c9084906112a6565b909155505060408051858152602081018590526001600160a01b03808816929089169133917fc3d58168c5ae7397731d063d5bbf3d657854427343f4c083240f7aacaa2d0f62910160405180910390a46001600160a01b0385163b15610d425760405163f23a6e6160e01b815263bc197c8160e01b906001600160a01b0387169063f23a6e6190610cab9033908b908a908a908a908a906004016114f1565b6020604051808303815f875af1158015610cc7573d5f5f3e3d5ffd5b505050506040513d601f19601f82011682018060405250810190610ceb91906113a5565b6001600160e01b03191614610d425760405162461bcd60e51b815260206004820181905260248201527f52656365697665722072656a656374656420746f6b656e207472616e7366657260448201526064016102e9565b505050505050565b80356001600160a01b0381168114610d60575f5ffd5b919050565b5f5f60408385031215610d76575f5ffd5b610d7f83610d4a565b946020939093013593505050565b5f60208284031215610d9d575f5ffd5b5035919050565b602081525f82518060208401528060208501604085015e5f604082850101526040601f19601f83011684010191505092915050565b5f5f83601f840112610de9575f5ffd5b5081356001600160401b03811115610dff575f5ffd5b6020830191508360208260051b8501011115610e19575f5ffd5b9250929050565b5f5f83601f840112610e30575f5ffd5b5081356001600160401b03811115610e46575f5ffd5b602083019150836020828501011115610e19575f5ffd5b5f5f5f5f5f5f5f5f60a0898b031215610e74575f5ffd5b610e7d89610d4a565b9750610e8b60208a01610d4a565b965060408901356001600160401b03811115610ea5575f5ffd5b610eb18b828c01610dd9565b90975095505060608901356001600160401b03811115610ecf575f5ffd5b610edb8b828c01610dd9565b90955093505060808901356001600160401b03811115610ef9575f5ffd5b610f058b828c01610e20565b999c989b5096995094979396929594505050565b5f5f5f5f60408587031215610f2c575f5ffd5b84356001600160401b03811115610f41575f5ffd5b610f4d87828801610dd9565b90955093505060208501356001600160401b03811115610f6b575f5ffd5b610f7787828801610dd9565b95989497509550505050565b602080825282518282018190525f918401906040840190835b81811015610fba578351835260209384019390920191600101610f9c565b509095945050505050565b5f5f60408385031215610fd6575f5ffd5b610fdf83610d4a565b915060208301358015158114610ff3575f5ffd5b809150509250929050565b634e487b7160e01b5f52604160045260245ffd5b5f5f5f60608486031215611024575f5ffd5b833592506020840135915060408401356001600160401b03811115611047575f5ffd5b8401601f81018613611057575f5ffd5b80356001600160401b0381111561107057611070610ffe565b604051601f8201601f19908116603f011681016001600160401b038111828210171561109e5761109e610ffe565b6040528181528282016020018810156110b5575f5ffd5b816020840160208301375f602083830101528093505050509250925092565b5f5f604083850312156110e5575f5ffd5b6110ee83610d4a565b91506110fc60208401610d4a565b90509250929050565b5f5f5f5f5f5f60a0878903121561111a575f5ffd5b61112387610d4a565b955061113160208801610d4a565b9450604087013593506060870135925060808701356001600160401b03811115611159575f5ffd5b61116589828a01610e20565b979a9699509497509295939492505050565b600181811c9082168061118b57607f821691505b6020821081036111a957634e487b7160e01b5f52602260045260245ffd5b50919050565b6020808252604a908201527f54686520726563656976696e67206163636f756e7420697320616e206164647260408201527f657373207a65726f3a3a2063616e6e6f74207472616e7366657220746f2074686060820152691a5cc81858d8dbdd5b9d60b21b608082015260a00190565b6020808252602c908201527f796f7520646f6e74206861766520617070726f76616c20746f206d616b65207460408201526b3434b9903a3930b739b332b960a11b606082015260800190565b634e487b7160e01b5f52603260045260245ffd5b634e487b7160e01b5f52601160045260245ffd5b81810381811115610ab057610ab061127f565b80820180821115610ab057610ab061127f565b8183525f6001600160fb1b038311156112d0575f5ffd5b8260051b80836020870137939093016020019392505050565b604081525f6112fc6040830186886112b9565b828103602084015261130f8185876112b9565b979650505050505050565b81835281816020850137505f828201602090810191909152601f909101601f19169091010190565b6001600160a01b0389811682528816602082015260a0604082018190525f9061136e908301888a6112b9565b82810360608401526113818187896112b9565b9050828103608084015261139681858761131a565b9b9a5050505050505050505050565b5f602082840312156113b5575f5ffd5b81516001600160e01b0319811681146113cc575f5ffd5b9392505050565b5f602082840312156113e3575f5ffd5b6113cc82610d4a565b601f821115610a8257805f5260205f20601f840160051c810160208510156114115750805b601f840160051c820191505b81811015611430575f815560010161141d565b5050505050565b81516001600160401b0381111561145057611450610ffe565b6114648161145e8454611177565b846113ec565b6020601f821160018114611496575f831561147f5750848201515b5f19600385901b1c1916600184901b178455611430565b5f84815260208120601f198516915b828110156114c557878501518255602094850194600190920191016114a5565b50848210156114e257868401515f19600387901b60f8161c191681555b50505050600190811b01905550565b6001600160a01b03878116825286166020820152604081018590526060810184905260a0608082018190525f9061152b908301848661131a565b9897505050505050505056fea2646970667358221220317ab9928b3fbff355d8d93eadf77e324e6a17d581f13af14bdcceb82afadb2764736f6c634300081e0033",
  "linkReferences": {},
  "deployedLinkReferences": {},
  "immutableReferences": {},
  "inputSourceName": "project/contracts/vengence.sol",
  "buildInfoId": "solc-0_8_30-4d940a6d79cb61b9374adbb6aa2e39924f43b783"
}