{
  "_format": "hh3-artifact-1",
  "contractName": "Vengence",
  "sourceName": "contracts/vengence.sol",
  "abi": [
    {
      "inputs": [],
      "stateMutability": "nonpayable",
      "type": "constructor"
    },
    {
      "anonymous": false,
      "inputs": [
        {
          "indexed": true,
          "internalType": "address",
          "name": "account",
          "type": "address"
        },
        {
          "indexed": true,
          "internalType": "address",
          "name": "operator",
          "type": "address"
        },
        {
          "indexed": false,
          "internalType": "bool",
          "name": "approved",
          "type": "bool"
        }
      ],
      "name": "ApprovalForAll",
      "type": "event"
    },
    {
      "anonymous": false,
      "inputs": [
        {
          "indexed": true,
          "internalType": "address",
          "name": "operator",
          "type": "address"
        },
        {
          "indexed": true,
          "internalType": "address",
          "name": "from",
          "type": "address"
        },
        {
          "indexed": true,
          "internalType": "address",
          "name": "to",
          "type": "address"
        },
        {
          "indexed": false,
          "internalType": "uint256[]",
          "name": "ids",
          "type": "uint256[]"
        },
        {
          "indexed": false,
          "internalType": "uint256[]",
          "name": "values",
          "type": "uint256[]"
        }
      ],
      "name": "TransferBatch",
      "type": "event"
    },
    {
      "anonymous": false,
      "inputs": [
        {
          "indexed": true,
          "internalType": "address",
          "name": "operator",
          "type": "address"
        },
        {
          "indexed": true,
          "internalType": "address",
          "name": "from",
          "type": "address"
        },
        {
          "indexed": true,
          "internalType": "address",
          "name": "to",
          "type": "address"
        },
        {
          "indexed": false,
          "internalType": "uint256",
          "name": "id",
          "type": "uint256"
        },
        {
          "indexed": false,
          "internalType": "uint256",
          "name": "value",
          "type": "uint256"
        }
      ],
      "name": "TransferSingle",
      "type": "event"
    },
    {
      "anonymous": false,
      "inputs": [
        {
          "indexed": false,
          "internalType": "string",
          "name": "value",
          "type": "string"
        },
        {
          "indexed": true,
          "internalType": "uint256",
          "name": "id",
          "type": "uint256"
        }
      ],
      "name": "URI",
      "type": "event"
    },
    {
      "inputs": [],
      "name": "INDEXOF_BATMAN",
      "outputs": [
        {
          "internalType": "uint256",
          "name": "",
          "type": "uint256"
        }
      ],
      "stateMutability": "view",
      "type": "function"
    },
    {
      "inputs": [],
      "name": "INDEXOF_GOLD",
      "outputs": [
        {
          "internalType": "uint256",
          "name": "",
          "type": "uint256"
        }
      ],
      "stateMutability": "view",
      "type": "function"
    },
    {
      "inputs": [],
      "name": "INDEXOF_SILVER",
      "outputs": [
        {
          "internalType": "uint256",
          "name": "",
          "type": "uint256"
        }
      ],
      "stateMutability": "view",
      "type": "function"
    },
    {
      "inputs": [],
      "name": "admin",
      "outputs": [
        {
          "internalType": "address",
          "name": "",
          "type": "address"
        }
      ],
      "stateMutability": "view",
      "type": "function"
    },
    {
      "inputs": [
        {
          "internalType": "address",
          "name": "_owner",
          "type": "address"
        },
        {
          "internalType": "uint256",
          "name": "_id",
          "type": "uint256"
        }
      ],
      "name": "balanceOf",
      "outputs": [
        {
          "internalType": "uint256",
          "name": "myBalance_",
          "type": "uint256"
        }
      ],
      "stateMutability": "view",
      "type": "function"
    },
    {
      "inputs": [
        {
          "internalType": "address[]",
          "name": "_owners",
          "type": "address[]"
        },
        {
          "internalType": "uint256[]",
          "name": "_ids",
          "type": "uint256[]"
        }
      ],
      "name": "balanceOfBatch",
      "outputs": [
        {
          "internalType": "uint256[]",
          "name": "balanceOfOwners_",
          "type": "uint256[]"
        }
      ],
      "stateMutability": "view",
      "type": "function"
    },
    {
      "inputs": [
        {
          "internalType": "address",
          "name": "_owner",
          "type": "address"
        },
        {
          "internalType": "address",
          "name": "_operator",
          "type": "address"
        }
      ],
      "name": "isApprovedForAll",
      "outputs": [
        {
          "internalType": "bool",
          "name": "",
          "type": "bool"
        }
      ],
      "stateMutability": "view",
      "type": "function"
    },
    {
      "inputs": [
        {
          "internalType": "address",
          "name": "_from",
          "type": "address"
        },
        {
          "internalType": "address",
          "name": "_to",
          "type": "address"
        },
        {
          "internalType": "uint256[]",
          "name": "_ids",
          "type": "uint256[]"
        },
        {
          "internalType": "uint256[]",
          "name": "_amounts",
          "type": "uint256[]"
        },
        {
          "internalType": "bytes",
          "name": "_data",
          "type": "bytes"
        }
      ],
      "name": "safeBatchTransferFrom",
      "outputs": [],
      "stateMutability": "nonpayable",
      "type": "function"
    },
    {
      "inputs": [
        {
          "internalType": "address",
          "name": "_from",
          "type": "address"
        },
        {
          "internalType": "address",
          "name": "_to",
          "type": "address"
        },
        {
          "internalType": "uint256",
          "name": "_id",
          "type": "uint256"
        },
        {
          "internalType": "uint256",
          "name": "_amount",
          "type": "uint256"
        },
        {
          "internalType": "bytes",
          "name": "_data",
          "type": "bytes"
        }
      ],
      "name": "safeTransferFrom",
      "outputs": [],
      "stateMutability": "nonpayable",
      "type": "function"
    },
    {
      "inputs": [
        {
          "internalType": "address",
          "name": "_operator",
          "type": "address"
        },
        {
          "internalType": "bool",
          "name": "_approved",
          "type": "bool"
        }
      ],
      "name": "setApprovalForAll",
      "outputs": [],
      "stateMutability": "nonpayable",
      "type": "function"
    },
    {
      "inputs": [
        {
          "internalType": "uint256",
          "name": "",
          "type": "uint256"
        }
      ],
      "name": "totalSupplyOfTokens",
      "outputs": [
        {
          "internalType": "uint256",
          "name": "",
          "type": "uint256"
        }
      ],
      "stateMutability": "view",
      "type": "function"
    },
    {
      "inputs": [
        {
          "internalType": "uint256",
          "name": "id",
          "type": "uint256"
        }
      ],
      "name": "uri",
      "outputs": [
        {
          "internalType": "string",
          "name": "",
          "type": "string"
        }
      ],
      "stateMutability": "view",
      "type": "function"
    }
  ],
  "bytecode": "0x608060405234801561000f575f5ffd5b50600480546001600160a01b0319163317905560408051602081019091525f808252610041916402540be40090610090565b61006660016402540be40060405180602001604052805f81525061009060201b60201c565b61008b6002600160405180606001604052806035815260200161158060359139610090565b610456565b82158061009d5750826001145b15610132578051156100f65760405162461bcd60e51b815260206004820152601f60248201527f796f752063616e74207365742055524920666f72207468697320746f6b656e0060448201526064015b60405180910390fd5b5f838152602081815260408083203384529091528120805484929061011c9084906102ab565b90915550505f8381526002602052604090208290555b826002036102a6575f8151116101965760405162461bcd60e51b8152602060048201526024808201527f796f75206e65656420746f20706173732074686520555249206f6620746869736044820152630813919560e21b60648201526084016100ed565b600282106101e65760405162461bcd60e51b815260206004820152601a60248201527f4261746d616e204e66742063616e206f6e6c792068617665203100000000000060448201526064016100ed565b5f838152600260205260409020546001116102435760405162461bcd60e51b815260206004820152601860248201527f4261746d616e204e667420616c7265616479204578697374000000000000000060448201526064016100ed565b5f83815260036020526040902061025a8282610367565b505f83815260026020526040908190208390555183907f6bb7ff708619ba0610cba295a58592e0451dee2622938c8755667688daf3529b9061029d908490610421565b60405180910390a25b505050565b808201808211156102ca57634e487b7160e01b5f52601160045260245ffd5b92915050565b634e487b7160e01b5f52604160045260245ffd5b600181811c908216806102f857607f821691505b60208210810361031657634e487b7160e01b5f52602260045260245ffd5b50919050565b601f8211156102a657805f5260205f20601f840160051c810160208510156103415750805b601f840160051c820191505b81811015610360575f815560010161034d565b5050505050565b81516001600160401b03811115610380576103806102d0565b6103948161038e84546102e4565b8461031c565b6020601f8211600181146103c6575f83156103af5750848201515b5f19600385901b1c1916600184901b178455610360565b5f84815260208120601f198516915b828110156103f557878501518255602094850194600190920191016103d5565b508482101561041257868401515f19600387901b60f8161c191681555b50505050600190811b01905550565b602081525f82518060208401528060208501604085015e5f604082850101526040601f19601f83011684010191505092915050565b61111d806104635f395ff3fe608060405234801561000f575f5ffd5b50600436106100b0575f3560e01c8063a22cb4651161006e578063a22cb4651461015d578063abb0f6d314610170578063cb04c4ea1461018f578063e985e9c514610196578063f242432a146101b9578063f851a440146101cc575f5ffd5b8062fdd58e146100b45780630e89341c146100f85780631055df4e146101185780632eb2c2d6146101205780634e1273f4146101355780638573daf414610155575b5f5ffd5b6100e56100c2366004610ad4565b5f908152602081815260408083206001600160a01b039094168352929052205490565b6040519081526020015b60405180910390f35b61010b610106366004610afc565b6101f7565b6040516100ef9190610b13565b6100e5600181565b61013361012e366004610bce565b610296565b005b610148610143366004610c8d565b6105af565b6040516100ef9190610cf9565b6100e5600281565b61013361016b366004610d3b565b61078b565b6100e561017e366004610afc565b60026020525f908152604090205481565b6100e55f81565b6101a96101a4366004610d74565b6107f6565b60405190151581526020016100ef565b6101336101c7366004610da5565b610825565b6004546101df906001600160a01b031681565b6040516001600160a01b0390911681526020016100ef565b5f81815260036020526040902080546060919061021390610e18565b80601f016020809104026020016040519081016040528092919081815260200182805461023f90610e18565b801561028a5780601f106102615761010080835404028352916020019161028a565b820191905f5260205f20905b81548152906001019060200180831161026d57829003601f168201915b50505050509050919050565b6001600160a01b0387166102c55760405162461bcd60e51b81526004016102bc90610e50565b60405180910390fd5b8483146103145760405162461bcd60e51b815260206004820152601f60248201527f69647320616e6420616d6f756e7473206c656e677468206d69736d617463680060448201526064016102bc565b6001600160a01b03881633148061034d57506001600160a01b0388165f90815260016020908152604080832033845290915290205460ff165b6103695760405162461bcd60e51b81526004016102bc90610ec0565b5f5b858110156104665784848281811061038557610385610f0c565b905060200201355f5f8989858181106103a0576103a0610f0c565b9050602002013581526020019081526020015f205f8b6001600160a01b03166001600160a01b031681526020019081526020015f205f8282546103e39190610f34565b9091555085905084828181106103fb576103fb610f0c565b905060200201355f5f89898581811061041657610416610f0c565b9050602002013581526020019081526020015f205f8a6001600160a01b03166001600160a01b031681526020019081526020015f205f8282546104599190610f47565b909155505060010161036b565b50866001600160a01b0316886001600160a01b0316336001600160a01b03167f4a39dc06d4c0dbc64b70af90fd698a233a518aa5d07e595d983b8c0526c8f7fb898989896040516104ba9493929190610f8a565b60405180910390a46001600160a01b0387163b156105a55760405163bc197c8160e01b808252906001600160a01b0389169063bc197c819061050e9033908d908c908c908c908c908c908c90600401610fe3565b6020604051808303815f875af115801561052a573d5f5f3e3d5ffd5b505050506040513d601f19601f8201168201806040525081019061054e9190611046565b6001600160e01b031916146105a55760405162461bcd60e51b815260206004820181905260248201527f52656365697665722072656a656374656420746f6b656e207472616e7366657260448201526064016102bc565b5050505050505050565b60608382146106265760405162461bcd60e51b815260206004820152603c60248201527f4163636f756e7420746f20696473206d69736d617463682c20506c656173652060448201527f6861766520616e20657175616c206e756d626572206f6620626f74680000000060648201526084016102bc565b5f8467ffffffffffffffff81111561064057610640611074565b604051908082528060200260200182016040528015610669578160200160208202803683370190505b5090505f5b85811015610781575f87878381811061068957610689610f0c565b905060200201602081019061069e9190611088565b6001600160a01b0316036106ec5760405162461bcd60e51b8152602060048201526015602482015274496e76616c6964206f776e6572206164647265737360581b60448201526064016102bc565b5f5f86868481811061070057610700610f0c565b9050602002013581526020019081526020015f205f88888481811061072757610727610f0c565b905060200201602081019061073c9190611088565b6001600160a01b03166001600160a01b031681526020019081526020015f205482828151811061076e5761076e610f0c565b602090810291909101015260010161066e565b5095945050505050565b335f8181526001602090815260408083206001600160a01b03871680855290835292819020805460ff191686151590811790915590519081529192917f17307eab39ab6107e8899845ad3d59bd9653f200f220920489ca2b5937696c31910160405180910390a35050565b6001600160a01b038083165f9081526001602090815260408083209385168352929052205460ff165b92915050565b6001600160a01b03851661084b5760405162461bcd60e51b81526004016102bc90610e50565b6001600160a01b03861633148061088457506001600160a01b0386165f90815260016020908152604080832033845290915290205460ff165b6108a05760405162461bcd60e51b81526004016102bc90610ec0565b5f848152602081815260408083206001600160a01b038a1684529091529020546109185760405162461bcd60e51b8152602060048201526024808201527f696e737566666369656e742062616c616e636520746f207472616e736665722060448201526366726f6d60e01b60648201526084016102bc565b5f848152602081815260408083206001600160a01b038a16845290915281208054859290610947908490610f34565b90915550505f848152602081815260408083206001600160a01b03891684529091528120805485929061097b908490610f47565b909155505060408051858152602081018590526001600160a01b03808816929089169133917fc3d58168c5ae7397731d063d5bbf3d657854427343f4c083240f7aacaa2d0f62910160405180910390a46001600160a01b0385163b15610ab15760405163f23a6e6160e01b815263bc197c8160e01b906001600160a01b0387169063f23a6e6190610a1a9033908b908a908a908a908a906004016110a1565b6020604051808303815f875af1158015610a36573d5f5f3e3d5ffd5b505050506040513d601f19601f82011682018060405250810190610a5a9190611046565b6001600160e01b03191614610ab15760405162461bcd60e51b815260206004820181905260248201527f52656365697665722072656a656374656420746f6b656e207472616e7366657260448201526064016102bc565b505050505050565b80356001600160a01b0381168114610acf575f5ffd5b919050565b5f5f60408385031215610ae5575f5ffd5b610aee83610ab9565b946020939093013593505050565b5f60208284031215610b0c575f5ffd5b5035919050565b602081525f82518060208401528060208501604085015e5f604082850101526040601f19601f83011684010191505092915050565b5f5f83601f840112610b58575f5ffd5b50813567ffffffffffffffff811115610b6f575f5ffd5b6020830191508360208260051b8501011115610b89575f5ffd5b9250929050565b5f5f83601f840112610ba0575f5ffd5b50813567ffffffffffffffff811115610bb7575f5ffd5b602083019150836020828501011115610b89575f5ffd5b5f5f5f5f5f5f5f5f60a0898b031215610be5575f5ffd5b610bee89610ab9565b9750610bfc60208a01610ab9565b9650604089013567ffffffffffffffff811115610c17575f5ffd5b610c238b828c01610b48565b909750955050606089013567ffffffffffffffff811115610c42575f5ffd5b610c4e8b828c01610b48565b909550935050608089013567ffffffffffffffff811115610c6d575f5ffd5b610c798b828c01610b90565b999c989b5096995094979396929594505050565b5f5f5f5f60408587031215610ca0575f5ffd5b843567ffffffffffffffff811115610cb6575f5ffd5b610cc287828801610b48565b909550935050602085013567ffffffffffffffff811115610ce1575f5ffd5b610ced87828801610b48565b95989497509550505050565b602080825282518282018190525f918401906040840190835b81811015610d30578351835260209384019390920191600101610d12565b509095945050505050565b5f5f60408385031215610d4c575f5ffd5b610d5583610ab9565b915060208301358015158114610d69575f5ffd5b809150509250929050565b5f5f60408385031215610d85575f5ffd5b610d8e83610ab9565b9150610d9c60208401610ab9565b90509250929050565b5f5f5f5f5f5f60a08789031215610dba575f5ffd5b610dc387610ab9565b9550610dd160208801610ab9565b94506040870135935060608701359250608087013567ffffffffffffffff811115610dfa575f5ffd5b610e0689828a01610b90565b979a9699509497509295939492505050565b600181811c90821680610e2c57607f821691505b602082108103610e4a57634e487b7160e01b5f52602260045260245ffd5b50919050565b6020808252604a908201527f54686520726563656976696e67206163636f756e7420697320616e206164647260408201527f657373207a65726f3a3a2063616e6e6f74207472616e7366657220746f2074686060820152691a5cc81858d8dbdd5b9d60b21b608082015260a00190565b6020808252602c908201527f796f7520646f6e74206861766520617070726f76616c20746f206d616b65207460408201526b3434b9903a3930b739b332b960a11b606082015260800190565b634e487b7160e01b5f52603260045260245ffd5b634e487b7160e01b5f52601160045260245ffd5b8181038181111561081f5761081f610f20565b8082018082111561081f5761081f610f20565b8183525f6001600160fb1b03831115610f71575f5ffd5b8260051b80836020870137939093016020019392505050565b604081525f610f9d604083018688610f5a565b8281036020840152610fb0818587610f5a565b979650505050505050565b81835281816020850137505f828201602090810191909152601f909101601f19169091010190565b6001600160a01b0389811682528816602082015260a0604082018190525f9061100f908301888a610f5a565b8281036060840152611022818789610f5a565b90508281036080840152611037818587610fbb565b9b9a5050505050505050505050565b5f60208284031215611056575f5ffd5b81516001600160e01b03198116811461106d575f5ffd5b9392505050565b634e487b7160e01b5f52604160045260245ffd5b5f60208284031215611098575f5ffd5b61106d82610ab9565b6001600160a01b03878116825286166020820152604081018590526060810184905260a0608082018190525f906110db9083018486610fbb565b9897505050505050505056fea2646970667358221220607769abc782ea7f83e46acafeca824cbb2ff43bdd1132c5f8a062ef8259568264736f6c634300081e0033697066733a2f2f516d615a65716e7a6968645350534b6b72447566506f425733515675597653433661354e43693965564b356a6872",
  "linkReferences": {},
  "deployedLinkReferences": {},
  "immutableReferences": {},
  "inputSourceName": "project/contracts/vengence.sol",
  "buildInfoId": "solc-0_8_30-52b5752e7c48c633289b59b08e6311891efc7e33"
}